:04000000E4EF0BF02E
:1000080000C015F0F2A413D07B0ED66EE10ED76EA9
:10001800F294030E006ECECF4FF0000E506E0050DB
:1000280005E04F364F905036FF0FFAD7CE6A15C00D
:0400380000F01100C3
:0A003C00210E0D6E0D2EFED71200EE
:100046000F0E0C6E470E0D6E0D2EFED70C2EFCD726
:0600560000000000120092
:06005C000000000012008C
:100062000B820BAE3BEF00F0036802680168006888
:080072000A360232FF0E1200F3
:08007A000AAE029E000E120006
:1000820076BE02D0839E01D0838E76BC02D0839C42
:1000920001D0838C76BA02D0839A01D0838A76B853
:1000A20002D0839801D083884EB002D0848401D0DC
:1000B20084948482D2DF849276B602D0839E01D069
:1000C200838E76B402D0839C01D0838C76B202D028
:1000D200839A01D0838A76B002D0839801D0838834
:1000E2004EB002D0848401D084948482B6DF84929C
:0C00F2004EA002D0A7DF01D0A0DF12005A
:0E00FE00026A016A006A086A036A000E1200B4
:10010C000B840BAE91EF00F0010E036E026A016AD4
:0A011C00006A0A360232FF0E1200DC
:0C0126004E9072C076F0AADF4E801200EE
:100132000134083609360450085E0550D8A0053C43
:10014200095E003601360F0E0C6E01340836093690
:10015200045000A006D0085E0550D8A0053C095EF8
:1001620005D008260550D8B0053C092600360136D0
:100172000C2EEBD700B006D0045008260550D8B09C
:08018200053C092600001200F3
:10018A000A6A0350D8A40A800750D8A40A820A50DF
:10019A00D8B428EF01F0030AD8B4E1EF00F00AB0AE
:1001AA00DCEF00F006AE26EF01F024EF01F002AE1C
:1001BA0024EF01F026EF01F00250800B0A6E029E36
:1001CA000650800B069E0A18D8B4F2EF00F00A50C7
:1001DA00D8B424EF01F026EF01F00750035CD8B43D
:1001EA00FCEF00F0D8A018EF01F01EEF01F0065066
:1001FA00025CD8B406EF01F0D8A018EF01F01EEFA8
:10020A0001F00550015CD8B410EF01F0D8A018EF46
:10021A0001F01EEF01F00450005CD8B428EF01F0A1
:10022A00D8B01EEF01F00A52D8B426EF01F024EF3D
:10023A0001F00A52D8B424EF01F026EF01F0D88079
:0E024A001200D8901200D880D8841200120042
:10025800086A096A000E07620364B1EF01F00250F0
:1002680006180A6E075003267E0ED8A042EF01F04A
:10027800035ED8B0B5EF01F046EF01F0035ED8A0F9
:10028800B9EF01F0028E068E02C00EF001C00BF02D
:1002980000C00DF000500402F4CF0CF0015005022C
:1002A800F4CF00F0F3CF08F00402F3500C26F4501A
:1002B8000822000E00220D500502F3500C26F450BF
:1002C8000822000E002202500402F3500826F450BF
:1002D800002202500502016A000E0122F350002696
:1002E800F45001220D500602F3500826F450002263
:1002F800026A000E012202220B500602F350002669
:10030800F4500122000E02220E500602F35001267C
:10031800F450022202BE99EF01F008360036013689
:1003280002360306D8B4B9EF01F0ACEF01F0D8807B
:10033800800E08640030000E002201220222D8A09C
:10034800ACEF01F0023201320032034AB5EF01F09E
:100358000AAE029E000EBBEF01F0010ECCDEBBEF31
:1003680001F0020E7ADEBBEF01F0040ECBDE1200C4
:10037800086A080E0C6E003408360450085ED8B0BF
:0E03880002D00826D89000360C2EF5D71200B1
:100396000C6A0E6A0250D8A4E4EF01F001C002F024
:1003A60000C001F0006A0E860250D8A4E4EF01F006
:1003B60001C002F0016A0E960E880250D8B4F6EF1C
:1003C60001F00E50035ED8A4D8A0FBEF01F0D89040
:1003D60002BE00EF02F0003601360236032EEBEFC6
:1003E60001F0FBEF01F0010E0C6E86DE03EF02F06A
:1003F600020E0C6E88DE03EF02F0040E0C6E3ADE7F
:020406001200E2
:100408000CB046EF02F00CA2ECEF02F00E6A000E00
:1004180002645DEF02F0F00E0214D8A428EF02F097
:10042800023A01380F0B02260138F00B016E003832
:100438000F0B01260038F00B006E08380F0B002652
:100448000838F00B086E0E84D89002BE41EF02F017
:1004580008360036013602360E2A02BE41EF02F097
:1004680008360036013602360E2A02BE41EF02F087
:1004780008360036013602360E2A0E500364E2EFC3
:1004880002F0035E0BBC08AEE7EF02F0D880800EE6
:1004980008640030000E002201220222D8A0E7EFF3
:1004A80002F0023201320032034AECEF02F0E7EFC9
:1004B80002F001C002F000C001F008C000F0086AB4
:1004C800000E0E86026494EF02F0F00E0214D8A417
:1004D8007CEF02F0023A01380F0B02260138F00BCC
:1004E800016E00380F0B01260038F00B006E0E84E9
:1004F800D89002BE41EF02F00036013602360E2ACD
:1005080002BE41EF02F00036013602360E2A02BE64
:1005180041EF02F00036013602360E2A41EF02F0B2
:1005280001C002F000C001F0006A000E0E960E88AD
:100538000264C1EF02F0F00E0214D8A4ACEF02F08E
:10054800023A01380F0B02260138F00B016E0E84B7
:10055800D89002BE41EF02F0013602360E2A02BEE2
:1005680041EF02F0013602360E2A02BE41EF02F0D8
:10057800013602360E2A41EF02F001C002F0016A8C
:10058800000E0E860264F1EF02F0F00E0214D8A4F9
:10059800D0EF02F0023A0E84D89002BE41EF02F08A
:1005A80002360E2A02BE41EF02F002360E2A02BEC1
:1005B80041EF02F002360E2A41EF02F0010E0C6EF6
:1005C800A1DDF4EF02F0020E0C6E53DDF4EF02F041
:1005D800040E0C6E42DDF4EF02F0080E0C6E8BDD9B
:0205E8001200FF
:0805EA000B6A0B86FF0E1200E4
:1005F20072C004F073C005F004C002F005C003F03D
:10060200044A052A74C000F075C001F0744A752AC4
:1006120000C0E9FF01C0EAFF02C0E1FF03C0E2FF40
:10062200EECFE6FF02C0E9FF03C0EAFFEE5201E0AF
:0C063200E3D772C000F073C001F01200AA
:10063E000FD0800E646E19D0C00E646E16D0940E5C
:10064E00646E13D0D40E646E10D0800E646E0DD016
:10065E006450010AEEE06450020AEEE06450030AB0
:10066E00EEE06450040AEEE0F0D76504006E6450CC
:10067E00002600C064F000C076F0FCDC4E90686A84
:10068E0068506624E96E000E6720EA6EEE520BE0AB
:10069E0068506624E96E000E6720EA6EEECF72F0A7
:0A06AE003BDD682AEDD74E801200F4
:1006B8000450000A12E10550000A0FE10650000A32
:1006C8000CE10750000A09E1FF0E006EFF0E016EF3
:1006D8007F0E026EFF0E036EA4D0086A096A0750E7
:1006E800D8B407EF04F00350D8B40BEF04F002506D
:1006F80006180A6E028E068E0E6A02C008F001C045
:100708000CF000C00DF004500D5E0550D8A0053C5B
:100718000C5E0650D8A0063C085E086A0C6A0D6A92
:10072800D8A09EEF03F0D89002320132003208328E
:10073800010E0E6E0750035ED8A0ABEF03F07E0EDD
:100748000E240326D8B00FEF04F0B1EF03F07E0EAD
:100758000E240326D8A013EF04F0180E0B6E0D36E6
:100768000C3608360036013602360E360450005E66
:100778000550D8A0053C015E0650D8A0063C025E94
:1007880006340E120EA0CCEF03F00D80D7EF03F065
:10079800045000260550D8B0053C01260650D8B0B4
:1007A800062802260D900B2EB3EF03F0FDEF03F0A1
:1007B800D8900036013602360E360450005E0550D9
:1007C800D8A0053C015E0650D8A0063C025E06345F
:1007D8000E10010B0D26D8B00C2AD8B4082AD8A4BC
:1007E800FDEF03F008320C320D32032AD8B40FEFB4
:1007F80004F00AAE089E0850026E0C50016E0D50AF
:10080800006E15EF04F0010EECDE15EF04F0020E99
:1008180072DC15EF04F0040E20DC15EF04F0080E6E
:0408280071DC12006D
:10082C000B800BAE22EF04F0026A0AAEFF0E026ED2
:0C083C00016E006E0A360232FF0E120040
:100848000450000A08E10550000A05E1FF0E006E99
:100858007F0E016E57D00D6A096A086A01500010B0
:10086800D8B4000C015005180A6E0ABE0D1E0B6A9A
:1008780005AE05D0041E051E042AD8B4052A01AE0B
:1008880005D0001E011E002AD8B4012A0150051007
:100898000A6E0ABE10D049DC0BB020D00DAE000C99
:1008A800001E011E002AD8B4012A081E091E082AA3
:1008B800D8B4092A000C05AE0DD001BE07D00150EE
:1008C800096E0050086E016A006AE8D7016A006A7A
:1008D800002A000C011E001E0B2ADDD7082AD8B4F6
:1008E800092A0450085CD8A4D9D70550095CD8A4B3
:1008F800D5D7096A086A002AD8B4012A01AECED72A
:060908000000FF0C1200CC
:10090E00086A096A100E0C6E013408360936045056
:10091E00085E0550D8A0053C095ED8B007D004503B
:10092E0008260550D8B0053C0926D8900036013669
:06093E000C2EEAD71200A6
:100944000B6A0A6A096A00500402F4CF09F0F3CF73
:1009540008F001500502F4CF0BF0F3CF0AF0005079
:100964000502F3500926F4500A22E86A0B220150CA
:100974000402F3500926F4500A22E86A0B2208C044
:1009840000F009C001F00AC002F00BC003F012002D
:100994000050086E0150006E016A026A036A0B6A15
:1009A4000C6A960E036E0A6A00C001F008C000F0DB
:0809B400086A026AEEDC120081
:0C09BC000E0E0D6E0D2EFED70000120076
:1009C800025006180E6E086A096A0B6A035007641B
:1009D800D7EF05F006500A6E068E028E03500B6E96
:1009E8000750036E000E0B6427EF05F00B50075EEF
:1009F800D8B4C8EF05F0070E076496EF05F0075E58
:100A080000C008F001C000F002C001F0026A074E01
:100A1800C8EF05F007646BEF05F0075E00C008F04B
:100A280001C000F0016A074EC8EF05F0076449EFFE
:100A380005F0075E00C008F0006A074EC8EF05F031
:100A4800076430EF05F00AC002F005C001F004C0E9
:100A580000F0086AF4EF06F0030E07643BEF05F0B8
:100A6800075E08380F0B086E074EC8EF05F0D890E0
:100A78000832074EC8EF05F0D8900832074EC8EF85
:100A880005F0D8900832C8EF05F0030E07645AEF56
:100A980005F0075E08380F0B086E0038F00B0826C3
:100AA80000380F0B006E074EC8EF05F0D8900032E3
:100AB8000832074EC8EF05F0D89000320832074ECA
:100AC800C8EF05F0D89000320832C8EF05F0030EE1
:100AD800076482EF05F0075E08380F0B086E0038D0
:100AE800F00B082600380F0B006E0138F00B0026BB
:100AF80001380F0B016E074EC8EF05F0D890013290
:100B080000320832074EC8EF05F0D89001320032A3
:100B18000832074EC8EF05F0D8900132003208328B
:100B2800C8EF05F0030E0764B3EF05F0075E083859
:100B38000F0B086E0038F00B082600380F0B006EFC
:100B48000138F00B002601380F0B016E0238F00B4C
:100B5800012602380F0B026E074EC8EF05F0D89039
:100B68000232013200320832074EC8EF05F0D89041
:100B78000232013200320832074EC8EF05F0D89031
:100B88000232013200320832096A000E0EAEBCEFA2
:100B980006F0081E001E011E021E082A002201225D
:100BA8000222BCEF06F00750D8A4DDEF05F0F4EF01
:100BB80006F0096A02C00AF0028E068E0750035C2E
:100BC800076ED8B4AFEF06F0070E07647DEF06F0A6
:100BD800075E0450096E0550046E0650056E066ADD
:100BE800074EAFEF06F0070E076452EF06F0075EF8
:100BF8000450096E0550046E056A074EAFEF06F003
:100C0800070E076430EF06F0075E0450096E046AA9
:100C1800074EAFEF06F0070E076417EF06F00AC09D
:100C280002F0F4EF06F0030E076422EF06F0075E09
:100C380009380F0B096E074EAFEF06F0D89009324E
:100C4800074EAFEF06F0D8900932074EAFEF06F027
:100C5800D8900932AFEF06F0030E076441EF06F0B3
:100C6800075E09380F0B096E0438F00B09260438A3
:100C78000F0B046E074EAFEF06F0D890043209321E
:100C8800074EAFEF06F0D89004320932074EAFEFA7
:100C980006F0D89004320932AFEF06F0030E07646D
:100CA80069EF06F0075E09380F0B096E0438F00B80
:100CB800092604380F0B046E0538F00B0426053896
:100CC8000F0B056E074EAFEF06F0D89005320432D1
:100CD8000932074EAFEF06F0D890053204320932D8
:100CE800074EAFEF06F0D890053204320932AFEF65
:100CF80006F0030E07649AEF06F0075E09380F0B3B
:100D0800096E0438F00B092604380F0B046E0538F9
:100D1800F00B042605380F0B056E0638F00B052678
:100D280006380F0B066E074EAFEF06F0D890063266
:100D3800053204320932074EAFEF06F0D89006327A
:100D4800053204320932074EAFEF06F0D89006326A
:100D5800053204320932086A000E0EAEBCEF06F006
:100D6800091E041E051E061E092A04220522062243
:100D7800095008260450002205500122065002227C
:100D88000EBED3EF06F0D8A0E2EF06F00232013231
:100D980000320832033EE2EF06F0EEEF06F0D8B07C
:100DA800E8EF06F0000E081E001E011E021E082AAB
:100DB8000022012202220A7EE8EF06F0010E0C6EE4
:100DC80004EC02F0F6EF06F0020E0C6E04EC02F0F2
:100DD800F6EF06F0040E0C6E31EC00F0F6EF06F0BC
:060DE800000E0C6E12006B
:100DEE00020E0C6E490E0D6E0D2EFED70C2EFCD77C
:060DFE00000000001200DD
:100E0400706A716A64C06CF065C06DF066C06EF0A3
:100E140067C06FF06F50FF0A08E16E50FF0A05E1EA
:100E24006D50FF0A02E16C50FF0A0DE168C072F0D8
:100E340069C073F02E0E746E000E756EF9EC02F03C
:100E4400030E006EEDD1010E6A6E6EAE0ED0800EF2
:100E54006E18006E00C06EF06A2A68C0E1FF69C0B7
:100E6400E2FF2D0EE66E684A692A000E006E6F18C6
:100E740008E100506E1805E100506D1802E16C5055
:100E8400000A0CE168C072F069C073F02C0E746E35
:100E9400000E756EF9EC02F0006AC2D16F50FF0AC1
:100EA40008E16E50000A05E16D50000A02E16C5041
:100EB400000A0DE168C072F069C073F0320E746EFE
:100EC400000E756EF9EC02F06AC000F0A9D1000EB4
:100ED400046E000E056E000E066E7F0E076E6CC06B
:100EE40000F06DC001F06EC002F06FC003F0C5ECFD
:100EF40000F0010ED8B0000E006E00521CE06CC071
:100F040000F06DC001F06EC002F06FC003F0000E7F
:100F1400046E000E056E200E066E820E076E2CEC1B
:100F240001F000C06CF001C06DF002C06EF003C0AF
:100F34006FF07106CCD7000E046E000E056E200E05
:100F4400066E820E076E6CC000F06DC001F06EC0BC
:100F540002F06FC003F0C5EC00F0000ED8B0010E33
:100F6400006E00521CE06CC000F06DC001F06EC059
:100F740002F06FC003F0CD0E046ECC0E056E4C0E65
:100F8400066E7B0E076E2CEC01F000C06CF001C005
:100F94006DF002C06EF003C06FF0712ACCD7FF0E63
:100FA4006C14086EFF0E6D14096E7F0E6E140A6EBB
:100FB400000E6F140B6E08C004F009C005F00AC0DF
:100FC40006F00BC007F004360490053606360736E3
:100FD400000E6C14006E000E6D14016E000E6E1483
:100FE400026EFF0E6F14036E00C06CF001C06DF052
:100FF40002C06EF003C06FF004506C10006E055018
:101004006D10016E06506E10026E07506F10036E65
:1010140000C06CF001C06DF002C06EF003C06FF050
:101024007F0E6F5C006E00C06BF0010E6F6E00C02F
:1010340004F06CC000F06DC001F06EC002F06FC02F
:1010440003F0045007E00036009001360236033600
:10105400FF0FF8D700C06CF001C06DF002C06EF055
:1010640003C06FF068C0E1FF69C0E2FF6F50300F4A
:10107400E66E684A692A800E7118006E800E010AB5
:10108400005C08E3800E060A006E800E7118005C96
:1010940001E30AD068C0E1FF69C0E2FF2E0EE66EEC
:1010A400684A692A010E706E060E6B6E6B50000A58
:1010B40054E06F6A6CC000F06DC001F06EC002F0C5
:1010C4006FC003F000360090013602360336003656
:1010D40000900136023603366C5000266D50012212
:1010E4006E5002226F50032200C06CF001C06DF0FC
:1010F40002C06EF003C06FF06CC000F06DC001F070
:101104006EC002F06FC003F0003600900136023664
:10111400033600C06CF001C06DF002C06EF003C075
:101124006FF068C0E1FF69C0E2FF6F50300FE66EF8
:10113400684A692A7050000A0EE171067150000A6B
:101144000AE168C0E1FF69C0E2FF2E0EE66E684A5C
:10115400692A010E706E6B06A9D7FF0E6824E96E2A
:10116400FF0E6920EA6EEE50300A05E1010E685E5A
:10117400000E695AF2D7FF0E6824E96EFF0E69204B
:10118400EA6EEE502E0A04E1010E685E000E695A02
:101194007150000A3FE068C0E1FF69C0E2FF650EDC
:1011A400E66E684A692A800E7118006E800E000A85
:1011B400005C0BE268C0E1FF69C0E2FF2D0EE66E41
:1011C400684A692A71500008716E71C06BF07150E1
:1011D40009080FE20A0E046E6BC000F0BCEC01F0CB
:1011E40068C0E1FF69C0E2FF0050300FE66E684A54
:1011F400692A0A0E046E6BC000F0BCEC01F008C052
:1012040000F068C0E1FF69C0E2FF0050300FE66EF5
:10121400684A692A68C0E1FF69C0E2FFE66A006AB9
:021224001200B6
:10122600A69C64C0A9FFA69EA680A8CF00F01200C7
:1012360000C008F00B6A0C6A9E0E036E0A6A026A08
:0E124600016A006A020E0C6E04EC02F0120047
:101254000900F5CFE6FF0006FBE10106F9E1120003
:0A1264009494CA840C0EBD1212000F
:10126E00C26A070EC012C08E51C000F00036009048
:10127E00003600900050C212C280DEEC04F0C28232
:10128E00C2A201D0FDD7C4CF01F0006AC350001234
:08129E00000E0112C2901200C3
:0812A600BE6ABD98BD9A12005A
:1012AE00969296949598959A959C959E84928494F0
:1012BE00839E839C839A839823EC00F023EC00F0AA
:1012CE0023EC00F0838A838884822EEC00F08492D3
:1012DE0023EC00F084822EEC00F0849223EC00F0DC
:1012EE0084822EEC00F0849223EC00F083988482AA
:1012FE002EEC00F0849223EC00F084822EEC00F0B1
:10130E008492839A838E84822EEC00F0849223EC56
:10131E0000F0839E838884822EEC00F08492839862
:10132E0084822EEC00F0849223EC00F084822EEC6A
:10133E0000F08492838884822EEC00F0849223EC59
:10134E0000F0839884822EEC00F08492838E838C3E
:10135E00838A838884822EEC00F0849223EC00F042
:04136E004E8012009B
:10137200CB50010F006E016A000E012251C004F031
:10138200000E056EA2EC04F0060E026E00C004F020
:1013920001C005F0025005E005320432059EFF0F40
:1013A200FAD7040E016E04C000F0015004E00036CA
:1013B2000090FF0FFBD7300E0014036E04C000F044
:1013C20005C001F001320032019E01320032019E5D
:0E13D20000C0BEFF0F0EBD160350BD1212006C
:1013E0000A0E046E000E056E51C000F052C001F0EE
:1013F00024EC04F000C04CF001C04DF00A0E046E65
:10140000000E056E51C000F052C001F024EC04F053
:1014100008C000F009C001F000C04AF001C04BF064
:101420000A0E046E000E056E53C000F054C001F0A9
:1014300024EC04F000C03EF001C03FF00A0E046E40
:10144000000E056E53C000F054C001F024EC04F00F
:1014500008C000F009C001F000C03CF001C03DF040
:02146000120078
:10146200576A53C001F0010E006E015004E00036CD
:101472000090FF0FFBD700C056F051C0E9FF52C0E9
:10148200EAFF0050EE14016E0152010ED8A4000EC4
:10149200006E5550001A18E05450000804E2A6DC11
:1014A200A5DC5406F9D751C0E9FF52C0EAFF5650F5
:1014B200EE14016E0152010ED8A4000E006E5550BA
:0E14C200001A02E0FF0E576E57C000F0120035
:1014D0000B6A0C6A0A6A0350D8B4B2EF0AF0028EA3
:1014E0008E0E035E03BE7AEF0AF0D8B47AEF0AF0EC
:1014F000B6EF0AF0036C080E035CD8A091EF0AF077
:10150000036E013602C001F0026A080E035CD8A027
:1015100091EF0AF00136016A0350D8A4D8909BEFEE
:101520000AF00350D8B49BEF0AF0D890023201328F
:10153000032E95EF0AF00BBC01A0A8EF0AF0D8A08B
:10154000A8EF0AF0012AD8B4022A02BEC5EF0AF0B9
:101550000AAECBEF0AF0021E011E012AD8B4022AFD
:10156000CBEF0AF0026A016ACBEF0AF00B800BAEF8
:10157000CFEF0AF0026A0AAECFEF0AF0FF0E026E5A
:10158000016E0A360232CFEF0AF0010E0C6E16EC35
:1015900004F0D1EF0AF0000E0C6ED1EF0AF0FF0E4E
:0C15A0000C6E0150006E0250016E120033
:1015AC003F0E576E060E586E5B0E596E4F0E5A6EEE
:1015BC00660E5B6E6D0E5C6E7D0E5D6E070E5E6E66
:1015CC007F0E5F6E6F0E606E210E616E030E626E8B
:1015DC00400E636E570E5124E96E000E5220EA6ED7
:1015EC00EECF83FF8086060E0C6E300E0D6E0D2E28
:1015FC00FED70C2EFCD700008096570E5324E96EB4
:10160C00000E5420EA6EEECF83FF8088060E0C6E1F
:10161C00300E0D6E0D2EFED70C2EFCD700008098D0
:10162C00570E5524E96E000E5620EA6EEECF83FF5E
:10163C00808A060E0C6E300E0D6E0D2EFED70C2E03
:08164C00FCD70000809A120097
:10165400556A050E555C0AE255505324E16E000E9E
:101664005420E26E200EE66E552AF3D755505324CB
:10167400E16E000E5420E26EE66A5506555053247E
:10168400566E000E5420576E0A0E046E000E056E40
:1016940051C000F052C001F087EC04F008C000F023
:1016A40009C001F0300E002656C0E1FF57C0E2FF2A
:1016B40000C0E6FF0A0E046E000E056E51C000F075
:1016C40052C001F087EC04F000C051F001C052F0A8
:1016D400000E011802E1000E001801E102D05506C7
:0416E400CDD712004C
:1016E800A6A202D00000FCD7A69C51C0A9FF52C0F8
:1016F800A8FFA69EA684F2CF00F0F29E550EA76E14
:10170800AA0EA76EA68200BE02D0F29E01D0F28E6B
:04171800A694120081
:10171C00536A546A556A566A516A526A2950525C25
:10172C0002E12850515C19E251C064F076DD7DDD98
:10173C0053C004F054C005F055C006F056C007F075
:10174C00E4EC04F000C053F001C054F002C055F0BA
:10175C0003C056F0514A522AE1D728C000F029C0E4
:10176C0001F0CAEC04F000C004F001C005F002C0A6
:10177C0006F003C007F053C000F054C001F055C090
:10178C0002F056C003F05CEC03F000C064F001C042
:10179C0065F002C066F003C067F0400E686E000E84
:1017AC00696E02EC07F0010E646E0C0E656E400E55
:0C17BC00666E000E676E1FEC03F012005A
:1017C800E0EC0CF0936A956A94809494949A9492BD
:1017D8009386966A816A92969298929AF28EF28C81
:1017E800D08EF294F184F28A840ED56EDB0ED76E19
:1017F800610ED66EF294830ECD6ECE6ACF6A9E903D
:10180800010EC26E0C0EC16EBE0EC06E4CDD010E16
:10181800766E41EC00F00C0E766E41EC00F0010E95
:10182800646E010E656E1C0E666E000E676E1FEC10
:1018380003F0020E646E010E656E160E666E000EE3
:10184800676E1FEC03F0CA80CA92630ECB6E27DD69
:10185800516A8BDD03DD828A82828290020E516E8C
:1018680002DD00C02AF001C02BF000C002F001C068
:1018780003F003320232039E02C02AF003C02BF0A9
:1018880028C051F002C052F02BDF284A292A000E46
:10189800291802E1960E281807E12AC038F02BC053
:1018A80039F038DF286A296A516ADDDC00C036F071
:1018B80001C037F0CAEC04F08F0E046EC20E056E3C
:1018C800750E066E7C0E076E2CEC01F0FDDD00C077
:1018D80036F001C037F0000E006E2B50005C02E1BC
:1018E8002A501E0807E2030E2A02F3CF51F03DDD0D
:1018F800829202D0516A39DD810E516E0F0E526EFE
:10190800030E536E010E546E010E556EA6DD005285
:1019180004E0010E3A6E000E3B6E3A503B1010E0A8
:10192800810E516E0F0E526E030E536E010E546EE1
:10193800556A93DD005204E0827A81703A6A3B6A04
:10194800516A526A38C053F039C054F045DD4AC074
:1019580051F04BC052F03EC053F03FC054F03CC071
:1019680055F03DC056F01EDE4FC051F050C052F049
:10197800400E536E000E546E69DE020E646E060E43
:10198800656E400E666E000E676E1FEC03F066D73C
:02199800FFD777
:1019C00010EE16F0260E006E010E016E9A0EF66EE7
:0E19D000190EF76E000EF86E2AEC09F01200E8
:06199A00526F743A2000B8
:0C19A00054656D704D656469613A20006B
:0219AC00000039
:0219AE00000037
:0219B000300005
:0419B2004E614E0034
:0419B600494E460050
:0219BA0000002B
:0219BC00000029
:0219BE00000027
:020000040030CA
:0D000100021F1EFF8381FF0FC00FE00F40A4
:00000001FF
