:0400000039EF0CF0D8
:1000080000C015F0F2A413D07B0ED66EE10ED76EA9
:10001800F294030E006ECECF55F0000E566E0050CF
:1000280005E0553655905636FF0FFAD7CE6A15C0FB
:0400380000F01100C3
:06003C00000000001200AC
:100042000F0E0C6E470E0D6E0D2EFED70C2EFCD72A
:0600520000000000120096
:0A005800210E0D6E0D2EFED71200D2
:0E006200026A016A006A086A036A000E120050
:100070000B840BAE43EF00F0010E036E026A016ABF
:0A008000006A0A360232FF0E120079
:10008A007CBE02D0839E01D0838E7CBC02D0839C2E
:10009A0001D0838C7CBA02D0839A01D0838A7CB83F
:1000AA0002D0839801D0838854B002D0848401D0CE
:1000BA0084948482BEDF84927CB602D0839E01D06F
:1000CA00838E7CB402D0839C01D0838C7CB202D014
:1000DA00839A01D0838A7CB002D0839801D0838826
:1000EA0054B002D0848401D084948482A2DF8492A2
:0C00FA0054A002D0A1DF01D0AADF120048
:100106000B820BAE8DEF00F0036802680168006891
:080116000A360232FF0E12004E
:08011E000AAE029E000E120061
:10012600086A080E0C6E003408360450085ED8B013
:0E01360002D00826D89000360C2EF5D7120005
:10014400086A096A000E0762036427EF01F002508F
:1001540006180A6E075003267E0ED8A0B8EF00F0EA
:10016400035ED8B02BEF01F0BCEF00F0035ED8A023
:100174002FEF01F0028E068E02C00EF001C00BF0CC
:1001840000C00DF000500402F4CF0CF00150050241
:10019400F4CF00F0F3CF08F00402F3500C26F4502F
:1001A4000822000E00220D500502F3500C26F450D4
:1001B4000822000E002202500402F3500826F450D4
:1001C400002202500502016A000E0122F3500026AB
:1001D400F45001220D500602F3500826F450002278
:1001E400026A000E012202220B500602F35000267E
:1001F400F4500122000E02220E500602F350012692
:10020400F450022202BE0FEF01F008360036013628
:1002140002360306D8B42FEF01F022EF01F0D880A4
:10022400800E08640030000E002201220222D8A0B1
:1002340022EF01F0023201320032034A2BEF01F0C7
:100244000AAE029E000E31EF01F0010E08DF31EF1D
:1002540001F0020E56DF31EF01F0040E07DF120049
:100264000C6A0E6A0250D8A44BEF01F001C002F0F0
:1002740000C001F0006A0E860250D8A44BEF01F0D2
:1002840001C002F0016A0E960E880250D8B45DEFE8
:1002940001F00E50035ED8A4D8A062EF01F0D8900C
:1002A40002BE67EF01F0003601360236032E52EF2C
:1002B40001F062EF01F0010E0C6ED1DE6AEF01F085
:1002C400020E0C6ED3DE6AEF01F0040E0C6E25DF15
:0202D400120016
:1002D6000CB0ADEF01F00CA253EF02F00E6A000E67
:1002E6000264C4EF01F0F00E0214D8A48FEF01F0FF
:1002F600023A01380F0B02260138F00B016E003866
:100306000F0B01260038F00B006E08380F0B002685
:100316000838F00B086E0E84D89002BEA8EF01F0E4
:1003260008360036013602360E2A02BEA8EF01F064
:1003360008360036013602360E2A02BEA8EF01F054
:1003460008360036013602360E2A0E50036449EF8F
:1003560002F0035E0BBC08AE4EEF02F0D880800EB2
:1003660008640030000E002201220222D8A04EEFBF
:1003760002F0023201320032034A53EF02F04EEF2E
:1003860002F001C002F000C001F008C000F0086AE7
:10039600000E0E860264FBEF01F0F00E0214D8A4E4
:1003A600E3EF01F0023A01380F0B02260138F00B99
:1003B600016E00380F0B01260038F00B006E0E841C
:1003C600D89002BEA8EF01F00036013602360E2A9A
:1003D60002BEA8EF01F00036013602360E2A02BE32
:1003E600A8EF01F00036013602360E2AA8EF01F01A
:1003F60001C002F000C001F0006A000E0E960E88E1
:10040600026428EF02F0F00E0214D8A413EF02F0F3
:10041600023A01380F0B02260138F00B016E0E84EA
:10042600D89002BEA8EF01F0013602360E2A02BEAF
:10043600A8EF01F0013602360E2A02BEA8EF01F03F
:10044600013602360E2AA8EF01F001C002F0016A59
:10045600000E0E86026458EF02F0F00E0214D8A4C5
:1004660037EF02F0023A0E84D89002BEA8EF01F0F0
:1004760002360E2A02BEA8EF01F002360E2A02BE8E
:10048600A8EF01F002360E2AA8EF01F0010E0C6E5D
:10049600ECDD5BEF02F0020E0C6E3EDE5BEF02F06F
:1004A600040E0C6E2DDE5BEF02F0080E0C6ED6DD30
:0204B600120032
:0804B8000B6A0B86FF0E120017
:1004C0000A6A0350D8A40A800750D8A40A820A50A6
:1004D000D8B4C3EF02F0030AD8B47CEF02F00AB03C
:1004E00077EF02F006AEC1EF02F0BFEF02F002AE0E
:1004F000BFEF02F0C1EF02F00250800B0A6E029EC5
:100500000650800B069E0A18D8B48DEF02F00A50F0
:10051000D8B4BFEF02F0C1EF02F00750035CD8B4CB
:1005200097EF02F0D8A0B3EF02F0B9EF02F0065057
:10053000025CD8B4A1EF02F0D8A0B3EF02F0B9EF9B
:1005400002F00550015CD8B4ABEF02F0D8A0B3EFD5
:1005500002F0B9EF02F00450005CD8B4C3EF02F02F
:10056000D8B0B9EF02F00A52D8B4C1EF02F0BFEF31
:1005700002F00A52D8B4BFEF02F0C1EF02F0D88007
:0E0580001200D8901200D880D8841200120009
:10058E0078C004F079C005F004C002F005C003F095
:10059E00044A052A7AC000F07BC001F07A4A7B2A11
:1005AE0000C0E9FF01C0EAFF02C0E1FF03C0E2FFA5
:1005BE00EECFE6FF02C0E9FF03C0EAFFEE5201E014
:0C05CE00E3D778C000F079C001F0120003
:0C05DA00549078C07CF054DD5480120076
:1005E6000134083609360450085E0550D8A0053C8B
:1005F600095E003601360F0E0C6E013408360936D8
:10060600045000A006D0085E0550D8A0053C095E3F
:1006160005D008260550D8B0053C09260036013617
:100626000C2EEBD700B006D0045008260550D8B0E3
:08063600053C0926000012003A
:10063E000450000A12E10550000A0FE10650000AAC
:10064E000CE10750000A09E1FF0E006EFF0E016E6D
:10065E007F0E026EFF0E036EA4D0086A096A075061
:10066E00D8B4CAEF03F00350D8B4CEEF03F0025063
:10067E0006180A6E028E068E0E6A02C008F001C0BF
:10068E000CF000C00DF004500D5E0550D8A0053CD6
:10069E000C5E0650D8A0063C085E086A0C6A0D6A0D
:1006AE00D8A061EF03F0D890023201320032083246
:1006BE00010E0E6E0750035ED8A06EEF03F07E0E95
:1006CE000E240326D8B0D2EF03F074EF03F07E0EA3
:1006DE000E240326D8A0D6EF03F0180E0B6E0D369F
:1006EE000C3608360036013602360E360450005EE1
:1006FE000550D8A0053C015E0650D8A0063C025E0F
:10070E0006340E120EA08FEF03F00D809AEF03F059
:10071E00045000260550D8B0053C01260650D8B02E
:10072E00062802260D900B2E76EF03F0C0EF03F095
:10073E00D8900036013602360E360450005E055053
:10074E00D8A0053C015E0650D8A0063C025E0634D9
:10075E000E10010B0D26D8B00C2AD8B4082AD8A436
:10076E00C0EF03F008320C320D32032AD8B4D2EFA8
:10077E0003F00AAE089E0850026E0C50016E0D502A
:10078E00006ED8EF03F0010E90DED8EF03F0020EEC
:10079E0061DCD8EF03F0040EAFDCD8EF03F0080EE7
:0407AE0060DC1200F9
:1007B2000FD0800E6A6E19D0C00E6A6E16D0940EDB
:1007C2006A6E13D0D40E6A6E10D0800E6A6E0DD08F
:1007D2006A50010AEEE06A50020AEEE06A50030A29
:1007E200EEE06A50040AEEE0F0D76B04006E6A5045
:1007F200002600C06AF000C07CF046DC54906E6AAD
:100802006E506C24E96E000E6D20EA6EEE520BE023
:100812006E506C24E96E000E6D20EA6EEECF78F019
:0A082200DBDE6E2AEDD754801200D1
:10082C0000C008F00B6A0C6A9E0E036E0A6A026A1C
:0C083C00016A006A020E0C6E48DD12001A
:100848000B800BAE30EF04F0026A0AAEFF0E026EA8
:0C085800016E006E0A360232FF0E120024
:10086400766A776A6AC072F06BC073F06CC074F019
:100874006DC075F07550FF0A08E17450FF0A05E178
:100884007350FF0A02E17250FF0A0CE16EC078F067
:100894006FC079F0320E7A6E000E7B6E76DE030E38
:1008A400006EE9D1010E706E74AE0ED0800E741815
:1008B400006E00C074F0702A6EC0E1FF6FC0E2FFEA
:1008C4002D0EE66E6E4A6F2A000E006E751808E152
:1008D4000050741805E10050731802E17250000AC8
:1008E4000BE16EC078F06FC079F0300E7A6E000EB6
:1008F4007B6E4BDE006ABFD17550FF0A08E174506D
:10090400000A05E17350000A02E17250000A0CE18A
:100914006EC078F06FC079F0360E7A6E000E7B6E82
:1009240034DE70C000F0A7D1000E046E000E056E18
:10093400000E066E7F0E076E72C000F073C001F0E9
:1009440074C002F075C003F0B9DD010ED8B0000E1A
:10095400006E00521CE072C000F073C001F074C05D
:1009640002F075C003F0000E046E000E056E200E3A
:10097400066E820E076EA2EC00F000C072F001C099
:1009840073F002C074F003C075F07706CDD7000E83
:10099400046E000E056E200E066E820E076E72C087
:1009A40000F073C001F074C002F075C003F086DD7E
:1009B400000ED8B0010E006E00521CE072C000F0B0
:1009C40073C001F074C002F075C003F0CD0E046E64
:1009D400CC0E056E4C0E066E7B0E076EA2EC00F07C
:1009E40000C072F001C073F002C074F003C075F06F
:1009F400772ACDD7FF0E7214086EFF0E7314096E9A
:100A04007F0E74140A6E000E75140B6E08C004F089
:100A140009C005F00AC006F00BC007F004360490C4
:100A2400053606360736000E7214006E000E731477
:100A3400016E000E7414026EFF0E7514036E00C076
:100A440072F001C073F002C074F003C075F004507A
:100A54007210006E05507310016E06507410026E11
:100A640007507510036E00C072F001C073F002C02D
:100A740074F003C075F07F0E755C006E00C071F0F9
:100A8400010E756E00C004F072C000F073C001F076
:100A940074C002F075C003F0045007E00036009003
:100AA400013602360336FF0FF8D700C072F001C0DA
:100AB40073F002C074F003C075F06EC0E1FF6FC044
:100AC400E2FF7550300FE66E6E4A6F2A800E77187B
:100AD400006E800E010A005C08E3800E060A006EB8
:100AE400800E7718005C01E30AD06EC0E1FF6FC08E
:100AF400E2FF2E0EE66E6E4A6F2A010E766E060E29
:100B0400716E7150000A54E0756A72C000F073C0CF
:100B140001F074C002F075C003F000360090013695
:100B24000236033600360090013602360336725020
:100B3400002673500122745002227550032200C013
:100B440072F001C073F002C074F003C075F072C09B
:100B540000F073C001F074C002F075C003F00036F9
:100B6400009001360236033600C072F001C073F003
:100B740002C074F003C075F06EC0E1FF6FC0E2FF05
:100B84007550300FE66E6E4A6F2A7650000A0EE1F9
:100B940077067750000A0AE16EC0E1FF6FC0E2FFFA
:100BA4002E0EE66E6E4A6F2A010E766E7106A9D776
:100BB400FF0E6E24E96EFF0E6F20EA6EEE50300ACF
:100BC40005E1010E6E5E000E6F5AF2D7FF0E6E2421
:100BD400E96EFF0E6F20EA6EEE502E0A04E1010E5C
:100BE4006E5E000E6F5A7750000A3FE06EC0E1FF60
:100BF4006FC0E2FF650EE66E6E4A6F2A800E7718AC
:100C0400006E800E000A005C0BE26EC0E1FF6FC054
:100C1400E2FF2D0EE66E6E4A6F2A77500008776E5B
:100C240077C071F0775009080FE20A0E046E71C0A4
:100C340000F093EC00F06EC0E1FF6FC0E2FF0050E3
:100C4400300FE66E6E4A6F2A0A0E046E71C000F011
:100C540093EC00F008C000F06EC0E1FF6FC0E2FF4B
:100C64000050300FE66E6E4A6F2A6EC0E1FF6FC00F
:080C7400E2FFE66A006A1200CB
:100C7C00020E0C6E490E0D6E0D2EFED70C2EFCD7EF
:060C8C0000000000120050
:0C0C92000E0E0D6E0D2EFED7000012009D
:100C9E00A69C6AC0A9FFA69EA680A8CF00F012004F
:100CAE000B6A0A6A096A00500402F4CF09F0F3CF06
:100CBE0008F001500502F4CF0BF0F3CF0AF000500C
:100CCE000502F3500926F4500A22E86A0B2201505D
:100CDE000402F3500926F4500A22E86A0B2208C0D7
:100CEE0000F009C001F00AC002F00BC003F01200C0
:100CFE000450000A08E10550000A05E1FF0E006EDF
:100D0E007F0E016E57D00D6A096A086A01500010F5
:100D1E00D8B4000C015005180A6E0ABE0D1E0B6ADF
:100D2E0005AE05D0041E051E042AD8B4052A01AE50
:100D3E0005D0001E011E002AD8B4012A015005104C
:100D4E000A6E0ABE10D048DC0BB020D00DAE000CDF
:100D5E00001E011E002AD8B4012A081E091E082AE8
:100D6E00D8B4092A000C05AE0DD001BE07D0015033
:100D7E00096E0050086E016A006AE8D7016A006ABF
:100D8E00002A000C011E001E0B2ADDD7082AD8B43B
:100D9E00092A0450085CD8A4D9D70550095CD8A4F8
:100DAE00D5D7096A086A002AD8B4012A01AECED76F
:060DBE000000FF0C120012
:100DC400086A096A100E0C6E01340836093604509C
:100DD400085E0550D8A0053C095ED8B007D0045081
:100DE40008260550D8B0053C0926D89000360136AF
:060DF4000C2EEAD71200EC
:100DFA00025006180E6E086A096A0B6A03500764E5
:100E0A00F0EF07F006500A6E068E028E03500B6E44
:100E1A000750036E000E0B6440EF07F00B50075E9D
:100E2A00D8B4E1EF07F0070E0764AFEF07F0075EEB
:100E3A0000C008F001C000F002C001F0026A074ECB
:100E4A00E1EF07F0076484EF07F0075E00C008F0DF
:100E5A0001C000F0016A074EE1EF07F0076462EF94
:100E6A0007F0075E00C008F0006A074EE1EF07F0DE
:100E7A00076449EF07F00AC002F005C001F004C098
:100E8A0000F0086A0DEF09F0030E076454EF07F04B
:100E9A00075E08380F0B086E074EE1EF07F0D8908F
:100EAA000832074EE1EF07F0D8900832074EE1EF1B
:100EBA0007F0D8900832E1EF07F0030E076473EFEA
:100ECA0007F0075E08380F0B086E0038F00B08268B
:100EDA0000380F0B006E074EE1EF07F0D890003292
:100EEA000832074EE1EF07F0D89000320832074E79
:100EFA00E1EF07F0D89000320832E1EF07F0030E75
:100F0A0007649BEF07F0075E08380F0B086E00387E
:100F1A00F00B082600380F0B006E0138F00B002684
:100F2A0001380F0B016E074EE1EF07F0D89001323E
:100F3A0000320832074EE1EF07F0D8900132003252
:100F4A000832074EE1EF07F0D8900132003208323A
:100F5A00E1EF07F0030E0764CCEF07F0075E0838ED
:100F6A000F0B086E0038F00B082600380F0B006EC6
:100F7A000138F00B002601380F0B016E0238F00B16
:100F8A00012602380F0B026E074EE1EF07F0D890E8
:100F9A000232013200320832074EE1EF07F0D890F0
:100FAA000232013200320832074EE1EF07F0D890E0
:100FBA000232013200320832096A000E0EAED5EF53
:100FCA0008F0081E001E011E021E082A0022012225
:100FDA000222D5EF08F00750D8A4F6EF07F00DEF7C
:100FEA0009F0096A02C00AF0028E068E0750035CF5
:100FFA00076ED8B4C8EF08F0070E076496EF08F03A
:10100A00075E0450096E0550046E0650056E066AA6
:10101A00074EC8EF08F0070E07646BEF08F0075E8B
:10102A000450096E0550046E056A074EC8EF08F0B1
:10103A00070E076449EF08F0075E0450096E046A58
:10104A00074EC8EF08F0070E076430EF08F00AC031
:10105A0002F00DEF09F0030E07643BEF08F0075E9C
:10106A0009380F0B096E074EC8EF08F0D8900932FD
:10107A00074EC8EF08F0D8900932074EC8EF08F0BB
:10108A00D8900932C8EF08F0030E07645AEF08F047
:10109A00075E09380F0B096E0438F00B092604386D
:1010AA000F0B046E074EC8EF08F0D89004320932CD
:1010BA00074EC8EF08F0D89004320932074EC8EF3D
:1010CA0008F0D89004320932C8EF08F0030E07641A
:1010DA0082EF08F0075E09380F0B096E0438F00B2F
:1010EA00092604380F0B046E0538F00B0426053860
:1010FA000F0B056E074EC8EF08F0D8900532043280
:10110A000932074EC8EF08F0D89005320432093286
:10111A00074EC8EF08F0D890053204320932C8EFFA
:10112A0008F0030E0764B3EF08F0075E09380F0BE7
:10113A00096E0438F00B092604380F0B046E0538C3
:10114A00F00B042605380F0B056E0638F00B052642
:10115A0006380F0B066E074EC8EF08F0D890063215
:10116A00053204320932074EC8EF08F0D890063229
:10117A00053204320932074EC8EF08F0D890063219
:10118A00053204320932086A000E0EAED5EF08F0B5
:10119A00091E041E051E061E092A0422052206220D
:1011AA000950082604500022055001220650022246
:1011BA000EBEECEF08F0D8A0FBEF08F002320132C5
:1011CA0000320832033EFBEF08F007EF09F0D8B00F
:1011DA0001EF09F0000E081E001E011E021E082A59
:1011EA000022012202220A7E01EF09F0010E0C6E92
:1011FA006BEC01F00FEF09F0020E0C6E6BEC01F0D4
:10120A000FEF09F0040E0C6E83EC00F00FEF09F0FB
:06121A00000E0C6E120034
:101220000050086E0150006E016A026A036A0B6A80
:101230000C6A960E036E0A6A00C001F008C000F046
:0A124000086A026A32EC01F01200A5
:10124A000900F5CFE6FF0006FBE10106F9E112000D
:10125A00C26A070EC012C08E57C000F00036009056
:10126A00003600900050C212C2800EDDC282C2A2B5
:10127A0001D0FDD7C4CF01F0006AC3500012000E9E
:06128A000112C2901200E7
:08129000BE6ABD98BD9A120070
:10129800CB50010F006E016A000E012257C004F006
:1012A800000E056E00DD060E026E00C004F001C0DF
:1012B80005F0025005E005320432059EFF0FFAD70B
:1012C800040E016E04C000F0015004E000360090E6
:1012D800FF0FFBD7300E0014036E04C000F005C0EA
:1012E80001F001320032019E01320032019E00C03D
:0C12F800BEFF0F0EBD160350BD12120009
:10130400969296949598959A959C959E8492849499
:10131400839E839C839A839821EC00F021EC00F057
:1013240021EC00F0838A838884821EEC00F084928E
:1013340021EC00F084821EEC00F0849221EC00F099
:1013440084821EEC00F0849221EC00F08398848265
:101354001EEC00F0849221EC00F084821EEC00F07C
:101364008492839A838E84821EEC00F0849221EC12
:1013740000F0839E838884821EEC00F0849283981C
:1013840084821EEC00F0849221EC00F084821EEC36
:1013940000F08492838884821EEC00F0849221EC15
:1013A40000F0839884821EEC00F08492838E838CF8
:1013B400838A838884821EEC00F0849221EC00F0FE
:0413C400548012003F
:0A13C8009494CA840C0EBD121200AA
:1013D2005D6A59C001F0010E006E015004E0003652
:1013E2000090FF0FFBD700C05CF057C0E9FF58C068
:1013F200EAFF0050EE14016E0152010ED8A4000E55
:10140200006E5B50001A18E05A50000804E235DC06
:1014120034DC5A06F9D757C0E9FF58C0EAFF5C50DE
:10142200EE14016E0152010ED8A4000E006E5B5044
:0E143200001A02E0FF0E5D6E5DC000F01200B9
:101440000A0E046E000E056E57C000F058C001F081
:1014500056DC08C000F009C001F000C052F001C025
:1014600053F00A0E046E000E056E57C000F058C00F
:1014700001F045DC00C059F001C05AF059C057F0E6
:101480005AC058F00A0E046E000E056E59C000F0E6
:101490005AC001F034DC08C000F009C001F000C0FF
:1014A00050F001C051F00A0E046E000E056E59C0D6
:1014B00000F05AC001F023DC00C057F001C058F022
:1014C0000A0E046E000E056E1ADC08C000F009C09A
:0C14D00001F000C044F001C045F0120023
:1014DC000B6A0C6A0A6A0350D8B4B8EF0AF0028E91
:1014EC008E0E035E03BE80EF0AF0D8B480EF0AF0D4
:1014FC00BCEF0AF0036C080E035CD8A097EF0AF05F
:10150C00036E013602C001F0026A080E035CD8A01B
:10151C0097EF0AF00136016A0350D8A4D890A1EFD6
:10152C000AF00350D8B4A1EF0AF0D890023201327D
:10153C00032E9BEF0AF00BBC01A0AEEF0AF0D8A073
:10154C00AEEF0AF0012AD8B4022A02BECBEF0AF0A1
:10155C000AAED1EF0AF0021E011E012AD8B4022AEB
:10156C00D1EF0AF0026A016AD1EF0AF00B800BAEE0
:10157C00D5EF0AF0026A0AAED5EF0AF0FF0E026E42
:10158C00016E0A360232D5EF0AF0010E0C6E24EC15
:10159C0004F0D7EF0AF0000E0C6ED7EF0AF0FF0E36
:0C15AC000C6E0150006E0250016E120027
:1015B8000B6A0C6A0A6A0350D8B411EF0BF00A9E42
:1015C800028E860E035E03BEEFEF0AF0D8B4EFEF8B
:1015D8000AF014EF0BF0036C080E035CD8A0FDEFC3
:1015E8000AF0036E0236026A0350D8A4D89006EFB8
:1015F8000BF00350D8B406EF0BF0D8900232032E4C
:1016080001EF0BF00BBC02A011EF0BF0D8A011EF0B
:101618000BF0022AD8B41BEF0BF0016A21EF0BF094
:101628000B800BAE25EF0BF0016A25EF0BF0010ED6
:101638000C6E24EC04F027EF0BF0000E0C6E27EF75
:0C1648000BF0FF0E0C6E0250006E120042
:10165400596A5A6A5B6A5C6A576A586A2D50585CC0
:1016640002E12C50575C1BE257C06AF04FEC06F0C5
:1016740016EC04F059C004F05AC005F05BC006F043
:101684005CC007F0FDEC06F000C059F001C05AF050
:1016940002C05BF003C05CF0574A582ADFD72CC065
:1016A40000F02DC001F0BADD00C004F001C005F067
:1016B40002C006F003C007F059C000F05AC001F0A0
:1016C4005BC002F05CC003F01FEC03F000C06AF0E2
:1016D40001C06BF002C06CF003C06DF0460E6E6E7C
:1016E400000E6F6E32EC04F0010E6A6E0C0E6B6E1F
:0E16F400460E6C6E000E6D6ED9EC03F0120007
:10170200A6A202D00000FCD7A69C57C0A9FF58C0D1
:10171200A8FFA69EA684F2CF00F0F29E550EA76EF9
:10172200AA0EA76EA68200BE02D0F29E01D0F28E51
:04173200A694120067
:101736003F0E5D6E060E5E6E5B0E5F6E4F0E606E4A
:10174600660E616E6D0E626E7D0E636E070E646EC2
:101756007F0E656E6F0E666E210E676E030E686EE7
:10176600400E696E5D0E5724E96E000E5820EA6E33
:10177600EECF83FF8086060E0C6E300E0D6E0D2E9C
:10178600FED70C2EFCD7000080965D0E5924E96E1C
:10179600000E5A20EA6EEECF83FF8088060E0C6E8E
:1017A600300E0D6E0D2EFED70C2EFCD70000809845
:1017B6005D0E5B24E96E000E5C20EA6EEECF83FFC1
:1017C600808A060E0C6E300E0D6E0D2EFED70C2E78
:0817D600FCD70000809A12000C
:1017DE005B6A050E5B5C0AE25B505924E16E000EFB
:1017EE005A20E26E200EE66E5B2AF3D75B50592428
:1017FE00E16E000E5A20E26EE66A5B065B505924DB
:10180E005C6E000E5A205D6E0A0E046E000E056EA2
:10181E0057C000F058C001F0E2EC06F008C000F02E
:10182E0009C001F0300E00265CC0E1FF5DC0E2FF92
:10183E0000C0E6FF0A0E046E000E056E57C000F0E3
:10184E0058C001F0E2EC06F000C057F001C058F0AD
:10185E00000E011802E1000E001801E102D05B0635
:04186E00CDD71200C0
:10187200C1EC0DF0936A956A94809494949A949230
:1018820093869388966A816A92969298929AF28E39
:10189200F28CD08EF294F184F28A840ED56EDB0E35
:1018A200D76E610ED66EF294830ECD6ECE6ACF6A7B
:1018B2009E90010EC26E0C0EC16EBE0EC06E21DD78
:1018C200010E7C6E45EC00F00C0E7C6E45EC00F0D7
:1018D200010E6A6E010E6B6E1C0E6C6E000E6D6E4A
:1018E200D9EC03F0020E6A6E010E6B6E160E6C6E70
:1018F200000E6D6ED9EC03F0CA80CA92630ECB6EF5
:10190200C6DC576AC8DC5FDD828A82828290020E60
:10191200576EA2DC00C02AF001C02BF000C002F01A
:1019220001C003F003320232039E02C02AF003C058
:101932002BF02CC057F002C058F0E2DE2C4A2D2AC0
:10194200000E2D1802E1960E2C1807E12AC028F08D
:101952002BC029F07EDE2C6A2D6A576A7DDC00C01E
:101962002EF001C02FF05BDC8F0E046EC20E056EEE
:10197200750E066E7C0E076EA2EC00F0AEDD00C0A6
:101982002EF001C02FF02AC000F02BC001F047DC7E
:101992009A0E046E990E056E190E066E7C0E076E77
:1019A2001FEC03F09ADD00C02AF001C02BF0000EFC
:1019B2003F1802E1000E3E181CE1000E006E2B5093
:1019C200005C02E12A501E080FE22AC000F02BC080
:1019D20001F025DC00C03AF001C03BF002C03CF04F
:1019E20003C03DF0829204D03A6A3B6A3C6A3D6A87
:1019F20013D0000E3F1802E1010E3E180DE12EC079
:101A020000F02FC001F00BDC00C03AF001C03BF047
:101A120002C03CF003C03DF03AC000F03BC001F010
:101A22003CC002F03DC003F0C6DD00C057F033DC1D
:101A3200810E576E0F0E586E030E596E010E5A6EBE
:101A4200010E5B6EC5DC005204E0010E426E000E18
:101A5200436E4250431010E0810E576E0F0E586EC7
:101A6200030E596E010E5A6E5B6AB2DC005204E03C
:101A7200827A8170426A436A810E576E0F0E586EE7
:101A8200040E596E010E5A6E010E5B6EA1DC0052FD
:101A920004E0010E406E000E416E405041101DE008
:101AA200810E576E0F0E586E040E596E010E5A6E4D
:101AB2005B6A8EDC005211E0827A8170406A416A70
:101AC200000E3F1802E1000E3E1805E1010E3E6EC7
:101AD200000E3F6E02D03E6A3F6A2EC000F02FC059
:101AE20001F010EC09F0850E046EEB0E056E510E3E
:101AF200066E7D0E076EA2EC00F0EFDC00C02EF049
:101B020001C02FF000C057F001C058F098DC44C06B
:101B120057F045C058F050C059F051C05AF052C069
:101B22005BF053C05CF006DE55C057F056C058F06B
:101B3200460E596E000E5A6E51DE020E6A6E060E87
:101B42006B6E460E6C6E000E6D6ED9EC03F0DFD636
:021B5200FFD7BB
:101B820010EE16F02E0E006E010E016E540EF66E61
:0E1B92001B0EF76E000EF86E25EC09F0120027
:061B5400526F743A2000FC
:0C1B5A0054656D704D656469613A2000AF
:021B660000007D
:021B680000007B
:021B6A00000079
:021B6C00000077
:021B6E00300045
:041B70004E614E0074
:041B7400494E460090
:041B78000000000069
:021B7C00000067
:021B7E00000065
:021B8000000063
:020000040030CA
:0D000100021F1EFF8381FF0FC00FE00F40A4
:00000001FF
