:04000000C4EF03F056
:1000080000C015F0F2A414D081707B0ED66EE10EFC
:10001800D76EF294030E006ECECF38F0000E396E14
:10002800005005E0383638903936FF0FFAD7CE6AD7
:0600380015C000F01100EC
:10003E000F0E0C6E470E0D6E0D2EFED70C2EFCD72E
:06004E000000000012009A
:0A005400210E0D6E0D2EFED71200D6
:06005E000000000012008A
:080064000AAE029E000E12001C
:0E006C00026A016A006A086A036A000E120046
:10007A0043BE02D0839E01D0838E43BC02D0839CB0
:10008A0001D0838C43BA02D0839A01D0838A43B8C1
:10009A0002D0839801D083883AB002D0848401D0F8
:1000AA0084948482D7DF849243B602D0839E01D09F
:1000BA00838E43B402D0839C01D0838C43B202D096
:1000CA00839A01D0838A43B002D0839801D083886F
:1000DA003AB002D0848401D084948482BBDF8492B3
:0C00EA003AA002D0A7DF01D0B0DF120066
:1000F6000B840BAE86EF00F0010E036E026A016AF6
:0A010600006A0A360232FF0E1200F2
:0C0110003A9042C043F0B1DF3A80120088
:10011C000C6A0E6A0250D8A4A7EF00F001C002F0DE
:10012C0000C001F0006A0E860250D8A4A7EF00F0C0
:10013C0001C002F0016A0E960E880250D8B4B9EFD5
:10014C0000F00E50035ED8A4D8A0BEEF00F0D890FB
:10015C0002BEC3EF00F0003601360236032EAEEFBE
:10016C0000F0BEEF00F0010E0C6E7ADFC6EF00F06F
:10017C00020E0C6EBADFC6EF00F0040E0C6E6CDFD4
:02018C0012005F
:0C018E000E0E0D6E0D2EFED700001200AC
:10019A00020E0C6E490E0D6E0D2EFED70C2EFCD7DC
:0601AA000000000012003D
:1001B0000B800BAEE4EF00F0026A0AAEFF0E026E97
:0C01C000016E006E0A360232FF0E1200C3
:1001CC00086A096A100E0C6E0134083609360450A0
:1001DC00085E0550D8A0053C095ED8B007D0045085
:1001EC0008260550D8B0053C0926D89000360136B3
:0601FC000C2EEAD71200F0
:100202000B820BAE0BEF01F0036802680168006815
:080212000A360232FF0E120051
:10021A000B6A0A6A096A00500402F4CF09F0F3CFA4
:10022A0008F001500502F4CF0BF0F3CF0AF00050AA
:10023A000502F3500926F4500A22E86A0B220150FB
:10024A000402F3500926F4500A22E86A0B2208C075
:10025A0000F009C001F00AC002F00BC003F012005E
:10026A003F6A050E3F5C0AE23F503D24E16E000EF4
:10027A003E20E26E200EE66E3F2AF3D73F503D2421
:10028A00E16E000E3E20E26EE66A3F063F503D24D4
:10029A00406E000E3E20416E0A0E046E000E056E80
:1002AA003BC000F03CC001F08CDF08C000F009C080
:1002BA0001F0300E002640C0E1FF41C0E2FF00C05D
:1002CA00E6FF0A0E046E000E056E3BC000F03CC04D
:1002DA0001F077DF00C03BF001C03CF0000E0118CE
:1002EA0002E1000E001801E102D03F06CFD712004A
:1002FA00969296949598959A959C959E84928494B4
:10030A00839E839C839A839895DE94DE93DE838A08
:10031A00838884829FDE84928DDE84829BDE84922F
:10032A0089DE848297DE849285DE8398848292DED7
:10033A00849280DE84828EDE8492839A838E848283
:10034A0089DE849277DE839E8388848283DE849228
:10035A00839884827FDE84926DDE84827BDE84923F
:10036A008388848277DE849265DE8398848272DE53
:10037A008492838E838C838A838884826BDE8492C0
:06038A0059DE3A8012006A
:100390000900F5CFE6FF0006FBE10106F9E11200D6
:1003A0003D6A3D503B24E96E000E3C20EA6EEE5261
:1003B0000BE03D503B24E96E000E3C20EA6EEECF90
:0A03C00042F0A6DE3D2AEDD7120040
:1003CA000FD0800E3B6E19D0C00E3B6E16D0940E25
:1003DA003B6E13D0D40E3B6E10D0800E3B6E0DD008
:1003EA003B50010AEEE03B50020AEEE03B50030AA2
:1003FA00EEE03B50040AEEE0F0D73C04006E3B50BE
:10040A00002600C03BF000C043F032DE3A903F6A5B
:10041A003F503D24E96E000E3E20EA6EEE520BE09C
:10042A003F503D24E96E000E3E20EA6EEECF42F0C8
:0A043A006ADE3F2AEDD73A80120077
:10044400416A3DC001F0010E006E015004E0003627
:100454000090FF0FFBD700C040F03BC0E9FF3CC059
:10046400EAFF0050EE14016E0152010ED8A4000EF2
:10047400006E3F50001A18E03E50000804E28BDE84
:100484008ADE3E06F9D73BC0E9FF3CC0EAFF405094
:10049400EE14016E0152010ED8A4000E006E3F50FE
:0E04A400001A02E0FF0E416E41C000F012008F
:1004B2000B6A0C6A0A6A0350D8B4A3EF02F0028EE8
:1004C2008E0E035E03BE6BEF02F0D8B46BEF02F048
:1004D200A7EF02F0036C080E035CD8A082EF02F0D3
:1004E200036E013602C001F0026A080E035CD8A056
:1004F20082EF02F00136016A0350D8A4D8908CEF43
:1005020002F00350D8B48CEF02F0D89002320132DC
:10051200032E86EF02F00BBC01A099EF02F0D8A0E7
:1005220099EF02F0012AD8B4022A02BEB6EF02F015
:100532000AAEBBEF02F0021E011E012AD8B4022A43
:10054200BBEF02F0026A016ABBEF02F00B800BAE56
:10055200BFEF02F0026A0AAEBFEF02F0FF0E026EB8
:10056200016E0A360232BFEF02F0010E0C6E1FDE80
:10057200C1EF02F0000E0C6EC1EF02F0FF0E0C6E26
:0A0582000150006E0250016E1200DD
:10058C000050086E0150006E016A026A036A0B6A21
:10059C000C6A960E036E0A6A00C001F008C000F0E7
:0805AC00086A026AB5DD1200C5
:1005B400086A096A000E076203645FEF03F00250E1
:1005C40006180A6E075003267E0ED8A0F0EF02F03C
:1005D400035ED8B063EF03F0F4EF02F0035ED8A03B
:1005E40067EF03F0028E068E02C00EF001C00BF01E
:1005F40000C00DF000500402F4CF0CF001500502CD
:10060400F4CF00F0F3CF08F00402F3500C26F450BA
:100614000822000E00220D500502F3500C26F4505F
:100624000822000E002202500402F3500826F4505F
:10063400002202500502016A000E0122F350002636
:10064400F45001220D500602F3500826F450002203
:10065400026A000E012202220B500602F350002609
:10066400F4500122000E02220E500602F35001261D
:10067400F450022202BE47EF03F00836003601367A
:1006840002360306D8B467EF03F05AEF03F0D880BC
:10069400800E08640030000E002201220222D8A03D
:1006A4005AEF03F0023201320032034A63EF03F0DF
:1006B4000AAE029E000E69EF03F0010ED5DC69EF6D
:1006C40003F0020E9CDD69EF03F0040E12DD12004C
:1006D400C26A070EC012C08E3BC000F00036009004
:1006E400003600900050C212C2804FDDC282C2A206
:1006F40001D0FDD7C4CF01F0006AC3500012000E30
:060704000112C290120078
:08070A00BE6ABD98BD9A120001
:10071200CB50010F006E016A000E01223BC004F0B3
:10072200000E056E79DD060E026E00C004F001C0F7
:1007320005F0025005E005320432059EFF0FFAD79C
:10074200040E016E04C000F0015004E00036009077
:10075200FF0FFBD7300E0014036E04C000F005C07B
:1007620001F001320032019E01320032019E00C0CE
:0C077200BEFF0F0EBD160350BD1212009A
:0A077E009494CA840C0EBD12120000
:10078800ADEC04F0936A956A94809494949A949248
:100798009386966A816AF28EF28CD08EF294F184F6
:1007A800F28A840ED56E7B0ED66EE10ED76EF29469
:1007B800830ECD6ECE6ACF6A9E90010EC26E0C0E6D
:1007C800C16EBE0EC06E95DD010E436E52DC0C0E7E
:1007D800436E4FDC010E3B6E010E3C6E250E3D6EE6
:1007E800000E3E6EEEDD020E3B6E010E3C6E1F0EDD
:1007F8003D6E000E3E6EE5DDCA80CA92630ECB6E7A
:1008080080DF3B6A82DFB7DF828A8282020E3B6E1C
:100818005DDF00C02CF001C02DF000C02CF001C03D
:100828002DF02D322C322D9E3B6A50DF00C01DF07A
:1008380001C01EF0A7DE8F0E046EC20E056E750E87
:10084800066E7C0E076EB2DE30DE00C01DF001C001
:100858001EF0000E006E2D50005C02E12C501E08A8
:1008680009E22CC03BF03B363B903B363B904DDFDA
:10087800829202D03B6A49DF810E3B6E0F0E3C6EBE
:10088800030E3D6E010E3E6E010E3F6ED7DD005227
:1008980004E0010E1B6E000E1C6E1B501C100FE0B6
:1008A800810E3B6E0F0E3C6E030E3D6E010E3E6ECA
:1008B8003F6AC4DD005203E0827A1B6A1C6A1DC0CD
:1008C80000F01EC001F05EDE850E046EEB0E056EB4
:1008D800510E066E7D0E076E69DEE7DD00C01DF065
:1008E80001C01EF02CC03BF02DC03CF02E0E3D6E1A
:1008F800000E3E6EB6DC010E3B6E080E3C6E2E0EF0
:100908003D6E000E3E6E5DDD38C03BF039C03CF0F8
:100918002E0E3D6E000E3E6EA4DC020E3B6E050EE2
:100928003C6E2E0E3D6E000E3E6E4BDD160E3B6E7F
:0A093800000E3C6E31DD6AD7FFD7D8
:10095A0010EE16F0180E006E010E016E420EF66EC3
:0E096A00090EF76E000EF86EC8EC01F01200D8
:050942002052504D00A1
:020947000000AE
:020949000000AC
:06094B00526F743A200017
:0709510054656D703A2000AF
:0209580000009D
:020000040030CA
:0D000100021F1EFF8381FF0FC00FE00F40A4
:00000001FF
