:04000000C8EF03F052
:1000080000C015F0F2A413D07B0ED66EE10ED76EA9
:10001800F294030E006ECECF30F0000E316E005019
:1000280005E0303630903136FF0FFAD7CE6A15C06A
:0400380000F01100C3
:10003C000F0E0C6E470E0D6E0D2EFED70C2EFCD730
:06004C000000000012009C
:0A005200210E0D6E0D2EFED71200D8
:06005C000000000012008C
:100062000B840BAE3CEF00F0010E036E026A016AD4
:0A007200006A0A360232FF0E120087
:08007C000AAE029E000E120004
:100084003ABE02D0839E01D0838E3ABC02D0839CB8
:1000940001D0838C3ABA02D0839A01D0838A3AB8C9
:1000A40002D0839801D083882FB002D0848401D0F9
:1000B40084948482D1DF84923AB602D0839E01D0A4
:1000C400838E3AB402D0839C01D0838C3AB202D09E
:1000D400839A01D0838A3AB002D0839801D083886E
:1000E4002FB002D0848401D084948482B5DF8492BA
:0C00F4002FA002D0A1DF01D0AADF120073
:0E010000026A016A006A086A036A000E1200B1
:0C010E002F9039C03AF0B7DF2F801200AC
:10011A000C6A0E6A0250D8A4A6EF00F001C002F0E1
:10012A0000C001F0006A0E860250D8A4A6EF00F0C3
:10013A0001C002F0016A0E960E880250D8B4B8EFD8
:10014A0000F00E50035ED8A4D8A0BDEF00F0D890FE
:10015A0002BEC2EF00F0003601360236032EADEFC2
:10016A0000F0BDEF00F0010E0C6EC5DFC5EF00F028
:10017A00020E0C6E71DFC5EF00F0040E0C6E79DF13
:02018A00120061
:0C018C000E0E0D6E0D2EFED700001200AE
:10019800086A096A100E0C6E0134083609360450D4
:1001A800085E0550D8A0053C095ED8B007D00450B9
:1001B80008260550D8B0053C0926D89000360136E7
:0601C8000C2EEAD7120024
:1001CE00020E0C6E490E0D6E0D2EFED70C2EFCD7A8
:0601DE0000000000120009
:1001E4000B800BAEFEEF00F0026A0AAEFF0E026E49
:0C01F400016E006E0A360232FF0E12008F
:100200000B820BAE0AEF01F0036802680168006818
:080210000A360232FF0E120053
:100218000B6A0A6A096A00500402F4CF09F0F3CFA6
:1002280008F001500502F4CF0BF0F3CF0AF00050AC
:100238000502F3500926F4500A22E86A0B220150FD
:100248000402F3500926F4500A22E86A0B2208C077
:1002580000F009C001F00AC002F00BC003F0120060
:10026800086A096A000E07620364B9EF01F00250D8
:1002780006180A6E075003267E0ED8A04AEF01F032
:10028800035ED8B0BDEF01F04EEF01F0035ED8A0D9
:10029800C1EF01F0028E068E02C00EF001C00BF015
:1002A80000C00DF000500402F4CF0CF0015005021C
:1002B800F4CF00F0F3CF08F00402F3500C26F4500A
:1002C8000822000E00220D500502F3500C26F450AF
:1002D8000822000E002202500402F3500826F450AF
:1002E800002202500502016A000E0122F350002686
:1002F800F45001220D500602F3500826F450002253
:10030800026A000E012202220B500602F350002658
:10031800F4500122000E02220E500602F35001266C
:10032800F450022202BEA1EF01F008360036013671
:1003380002360306D8B4C1EF01F0B4EF01F0D8805B
:10034800800E08640030000E002201220222D8A08C
:10035800B4EF01F0023201320032034ABDEF01F07E
:100368000AAE029E000EC3EF01F0010EC5DEC3EF18
:1003780001F0020E41DFC3EF01F0040E6EDE120041
:10038800366A050E365C0AE236503424E16E000EF9
:100398003520E26E200EE66E362AF3D73650342426
:1003A800E16E000E3520E26EE66A360636503424D9
:1003B800376E000E3520386E0A0E046E000E056E7C
:1003C80032C000F033C001F0E3DE08C000F009C01D
:1003D80001F0300E002637C0E1FF38C0E2FF00C050
:1003E800E6FF0A0E046E000E056E32C000F033C040
:1003F80001F0CEDE00C032F001C033F0000E01186B
:1004080002E1000E001801E102D03606CFD7120033
:100418000050086E0150006E016A026A036A0B6A96
:100428000C6A960E036E0A6A00C001F008C000F05C
:08043800086A026A6EDE120080
:100440000900F5CFE6FF0006FBE10106F9E1120025
:10045000969296949598959A959C959E849284945C
:10046000839E839C839A8398E9DDE8DDE7DD838AB8
:1004700083888482F3DD8492E1DD8482EFDD8492DF
:10048000DDDD8482EBDD8492D9DD83988482E6DD34
:100490008492D4DD8482E2DD8492839A838E848286
:1004A000DDDD8492CBDD839E83888482D7DD8492D8
:1004B00083988482D3DD8492C1DD8482CFDD8492EF
:1004C00083888482CBDD8492B9DD83988482C6DD03
:1004D0008492838E838C838A83888482BFDD849216
:0604E000ADDD2F801200CB
:1004E6000FD0800E326E19D0C00E326E16D0940E1A
:1004F600326E13D0D40E326E10D0800E326E0DD006
:100506003250010AEEE03250020AEEE03250030A9F
:10051600EEE03250040AEEE0F0D73304006E3250BB
:10052600002600C032F000C03AF0A9DD2F90366AEE
:1005360036503424E96E000E3520EA6EEE520BE09A
:1005460036503424E96E000E3520EA6EEECF39F0CF
:0A055600DBDD362AEDD72F801200FE
:10056000386A34C001F0010E006E015004E000361C
:100570000090FF0FFBD700C037F032C0E9FF33C057
:10058000EAFF0050EE14016E0152010ED8A4000ED5
:10059000006E3650001A18E03550000804E217DEED
:1005A00016DE3506F9D732C0E9FF33C0EAFF37500F
:1005B000EE14016E0152010ED8A4000E006E3650EA
:0E05C000001A02E0FF0E386E38C000F0120084
:1005CE000B6A0C6A0A6A0350D8B431EF03F0028E3C
:1005DE008E0E035E03BEF9EF02F0D8B4F9EF02F00F
:1005EE0035EF03F0036C080E035CD8A010EF03F098
:1005FE00036E013602C001F0026A080E035CD8A039
:10060E0010EF03F00136016A0350D8A4D8901AEF08
:10061E0003F00350D8B41AEF03F0D890023201322F
:10062E00032E14EF03F00BBC01A027EF03F0D8A0AC
:10063E0027EF03F0012AD8B4022A02BE44EF03F0DA
:10064E000AAE49EF03F0021E011E012AD8B4022A97
:10065E0049EF03F0026A016A49EF03F00B800BAE1B
:10066E004DEF03F0026A0AAE4DEF03F0FF0E026E7D
:10067E00016E0A3602324DEF03F0010E0C6EABDD49
:10068E004FEF03F0000E0C6E4FEF03F0FF0E0C6EEB
:0A069E000150006E0250016E1200C0
:0A06A8009494CA840C0EBD121200D7
:1006B200C26A070EC012C08E32C000F0003600902F
:1006C200003600900050C212C2805FDDC282C2A218
:1006D20001D0FDD7C4CF01F0006AC3500012000E52
:0606E2000112C29012009B
:1006E800A6A202D00000FCD7A69C32C0A9FF33C046
:1006F800A8FFA69EA684F2CF00F0F29E550EA76E24
:10070800AA0EA76EA68200BE02D0F29E01D0F28E7B
:04071800A694120091
:08071C00BE6ABD98BD9A1200EF
:10072400CB50010F006E016A000E012232C004F0AA
:10073400000E056E6FDD060E026E00C004F001C0EF
:1007440005F0025005E005320432059EFF0FFAD78A
:10075400040E016E04C000F0015004E00036009065
:10076400FF0FFBD7300E0014036E04C000F005C069
:1007740001F001320032019E01320032019E00C0BC
:0C078400BEFF0F0EBD160350BD12120088
:10079000010E166E176A186A196A1A6A1B6A4C0EDD
:1007A0001C6E690E1D6E640E1E6E6F0E1F6E3A0E6D
:1007B000206E200E216E226A236A246A936A956A4B
:1007C00094809494949A94929384966AF28EF28C84
:1007D000D08EF294F184F28A840ED56E7B0ED66EA2
:1007E000E10ED76EF294830ECD6ECE6ACF6A9E90E4
:1007F000010EC26E0C0EC16EBE0EC06E29DE010E61
:100800003A6E40DC0C0E3A6E3DDC010E326E010E8B
:10081000336E1C0E346E000E356E65DECA80CA92D1
:10082000630ECB6E7BDF326A7DDF3EDF828A82829F
:10083000020E326E3EDF00C01AF001C01BF000C095
:1008400002F001C003F003320232039E02C01AF02C
:1008500003C01BF016C032F002C033F045DF020EB9
:100860000B6E040E0C6EBA0E0D6E0D2EFED70C2EF6
:10087000FCD70B2EFAD70000164A172A326A19DF66
:1008800000C018F001C019F0C7DD8F0E046EC20E53
:10089000056E750E066E7C0E076EE6DC98DE00C0F7
:1008A00018F001C019F0000E006E1B50005C02E150
:1008B0001A501E0807E2030E1A02F3CF32F032DF9D
:1008C000829202D0326A2EDF810E326E0F0E336EAC
:1008D000020E346E010E356E010E366E41DE005290
:1008E00004E0010E236E000E246E235024100FE04E
:1008F000810E326E0F0E336E020E346E010E356EA7
:10090000366A2EDE005203E0827A236A246A18C017
:1009100000F019C001F080DD850E046EEB0E056E4F
:10092000510E066E7D0E076E9FDC51DE00C018F082
:1009300001C019F030C032F031C033F0250E346EF2
:0A094000000E356E21DD74D7FFD7DD
:020000040030CA
:0D000100021F1EFF8381FF0FC00FE00F40A4
:00000001FF
