:0400000082EF03F098
:1000080000C015F0F2A414D081707B0ED66EE10EFC
:10001800D76EF294030E006ECECF31F0000E326E22
:10002800005005E0313631903236FF0FFAD7CE6AEC
:0600380015C000F01100EC
:06003E00000000001200AA
:100044000F0E0C6E470E0D6E0D2EFED70C2EFCD728
:0600540000000000120094
:0A005A00210E0D6E0D2EFED71200D0
:100064000B840BAE3DEF00F0010E036E026A016AD1
:0A007400006A0A360232FF0E120085
:08007E000AAE029E000E120002
:100086003BBE02D0839E01D0838E3BBC02D0839CB4
:1000960001D0838C3BBA02D0839A01D0838A3BB8C5
:1000A60002D0839801D0838830B002D0848401D0F6
:1000B60084948482C1DF84923BB602D0839E01D0B1
:1000C600838E3BB402D0839C01D0838C3BB202D09A
:1000D600839A01D0838A3BB002D0839801D083886B
:1000E60030B002D0848401D084948482A5DF8492C7
:0C00F60030A002D0A4DF01D0ADDF12006A
:0E010200026A016A006A086A036A000E1200AF
:10011000086A096A100E0C6E01340836093604505C
:10012000085E0550D8A0053C095ED8B007D0045041
:1001300008260550D8B0053C0926D890003601366F
:060140000C2EEAD71200AC
:0C0146000E0E0D6E0D2EFED700001200F4
:100152000B800BAEB5EF00F0026A0AAEFF0E026E24
:0C016200016E006E0A360232FF0E120021
:10016E000B820BAEC1EF00F00368026801680068F5
:08017E000A360232FF0E1200E6
:0C01860030903AC03BF07CDF308012006B
:100192000C6A0E6A0250D8A4E2EF00F001C002F02D
:1001A20000C001F0006A0E860250D8A4E2EF00F00F
:1001B20001C002F0016A0E960E880250D8B4F4EF24
:1001C20000F00E50035ED8A4D8A0F9EF00F0D8904A
:1001D20002BEFEEF00F0003601360236032EE9EFD2
:1001E20000F0F9EF00F0010E0C6E8ADF01EF01F072
:1001F200020E0C6E36DF01EF01F0040E0C6E3EDFD4
:020202001200E8
:100204000B6A0A6A096A00500402F4CF09F0F3CFBA
:1002140008F001500502F4CF0BF0F3CF0AF00050C0
:100224000502F3500926F4500A22E86A0B22015011
:100234000402F3500926F4500A22E86A0B2208C08B
:1002440000F009C001F00AC002F00BC003F0120074
:100254000900F5CFE6FF0006FBE10106F9E1120013
:10026400969296949598959A959C959E849284944A
:10027400839E839C839A8398E3DEE2DEE1DE838AB5
:1002840083888482DADE8492DBDE8482D6DE849202
:10029400D7DE8482D2DE8492D3DE83988482CDDE5C
:1002A4008492CEDE8482C9DE8492839A838E848291
:1002B400C4DE8492C5DE839E83888482BEDE8492FB
:1002C40083988482BADE8492BBDE8482B6DE849212
:1002D40083888482B2DE8492B3DE83988482ADDE26
:1002E4008492838E838C838A83888482A6DE84921C
:0602F400A7DE30801200BD
:1002FA000FD0800E336E19D0C00E336E16D0940E06
:10030A00336E13D0D40E336E10D0800E336E0DD0F0
:10031A003350010AEEE03350020AEEE03350030A8A
:10032A00EEE03350040AEEE0F0D73404006E3350A6
:10033A00002600C033F000C03BF0A0DE3090376AE0
:10034A0037503524E96E000E3620EA6EEE520BE085
:10035A0037503524E96E000E3620EA6EEECF3AF0B9
:0A036A000DDF372AEDD730801200B6
:08037400BE6ABD98BD9A12009B
:10037C000B6A0C6A0A6A0350D8B408EF02F0028EBA
:10038C008E0E035E03BED0EF01F0D8B4D0EF01F0B7
:10039C000CEF02F0036C080E035CD8A0E7EF01F041
:1003AC00036E013602C001F0026A080E035CD8A08D
:1003BC00E7EF01F00136016A0350D8A4D890F1EFB1
:1003CC0001F00350D8B4F1EF01F0D89002320132B1
:1003DC00032EEBEF01F00BBC01A0FEEF01F0D8A057
:1003EC00FEEF01F0012AD8B4022A02BE1BEF02F084
:1003FC000AAE20EF02F0021E011E012AD8B4022A16
:10040C0020EF02F0026A016A20EF02F00B800BAEC3
:10041C0024EF02F0026A0AAE24EF02F0FF0E026E25
:10042C00016E0A36023224EF02F0010E0C6E8BDEE6
:10043C0026EF02F0000E0C6E26EF02F0FF0E0C6E93
:0A044C000150006E0250016E120014
:10045600086A096A000E07620364B0EF02F00250F0
:1004660006180A6E075003267E0ED8A041EF02F04A
:10047600035ED8B0B4EF02F045EF02F0035ED8A0F9
:10048600B8EF02F0028E068E02C00EF001C00BF02D
:1004960000C00DF000500402F4CF0CF0015005022C
:1004A600F4CF00F0F3CF08F00402F3500C26F4501A
:1004B6000822000E00220D500502F3500C26F450BF
:1004C6000822000E002202500402F3500826F450BF
:1004D600002202500502016A000E0122F350002696
:1004E600F45001220D500602F3500826F450002263
:1004F600026A000E012202220B500602F350002669
:10050600F4500122000E02220E500602F35001267C
:10051600F450022202BE98EF02F008360036013689
:1005260002360306D8B4B8EF02F0ABEF02F0D8807B
:10053600800E08640030000E002201220222D8A09C
:10054600ABEF02F0023201320032034AB4EF02F09E
:100556000AAE029E000EBAEF02F0010ECFDDBAEF30
:1005660002F0020E01DEBAEF02F0040E78DD120090
:10057600356A35503324E96E000E3420EA6EEE52A9
:100586000BE035503324E96E000E3420EA6EEECFD0
:0A0596003AF0F6DD352AEDD7120029
:1005A000376A050E375C0AE237503524E16E000EDB
:1005B0003620E26E200EE66E372AF3D73750352408
:1005C000E16E000E3620E26EE66A370637503524BB
:1005D000386E000E3620396E0A0E046E000E056E5F
:1005E00033C000F034C001F093DD08C000F009C052
:1005F00001F0300E002638C0E1FF39C0E2FF00C034
:10060000E6FF0A0E046E000E056E33C000F034C023
:1006100001F07EDD00C033F001C034F0000E01189F
:1006200002E1000E001801E102D03706CFD7120018
:0A0630009494CA840C0EBD1212004F
:10063A00CB50010F006E016A000E012233C004F094
:10064A00000E056EDADD060E026E00C004F001C06F
:10065A0005F0025005E005320432059EFF0FFAD775
:10066A00040E016E04C000F0015004E00036009050
:10067A00FF0FFBD7300E0014036E04C000F005C054
:10068A0001F001320032019E01320032019E00C0A7
:0C069A00BEFF0F0EBD160350BD12120073
:1006A6000050086E0150006E016A026A036A0B6A06
:1006B6000C6A960E036E0A6A00C001F008C000F0CC
:0806C600086A026A63DD1200FC
:1006CE00C26A070EC012C08E33C000F00036009012
:1006DE00003600900050C212C2802EDDC282C2A22D
:1006EE0001D0FDD7C4CF01F0006AC3500012000E36
:0606FE000112C29012007F
:100704002AEC04F0936A956A94809494949A94924F
:10071400966A816AF28EF28CD08EF294F184F28A17
:10072400840ED56E7B0ED66EE10ED76EF294830ED8
:10073400CD6ECE6ACF6A9E90010EC26E0C0EC16E53
:10074400BE0EC06E8DDD010E3B6E9BDC0C0E3B6E4F
:1007540098DC010E336E010E346E1F0E356E000EE2
:10076400366EC9DDCA80CA92630ECB6E01DEFF0EFF
:10077400336E61DF5BDF828A020E336EA6DF00C058
:1007840016F001C017F000C016F001C017F01732C0
:100794001632179E336A99DF00C018F001C019F0B1
:1007A40080DF8F0E046EC20E056E750E066E7C0E13
:1007B400076E4FDEE1DD00C018F001C019F000C083
:1007C40033F039DF18C000F019C001F06ADF850E7C
:1007D400046EEB0E056E510E066E7D0E076E39DE4D
:1007E400CBDD00C018F001C019F016C033F017C0FB
:1007F40034F0260E356E000E366ED0DE010E336EEA
:100804000B0E346E260E356E000E366E74DD18C077
:1008140033F019C034F0260E356E000E366EBEDE8F
:10082400020E336E010E346E260E356E000E366ED9
:1008340062DD1A0E336E000E346E9BDE9DD7FFD739
:1008540010EE16F0100E006E010E016E440EF66ED0
:0E086400080EF76E000EF86E2AEC01F012007E
:020844000000B2
:020846000000B0
:050848002052504D009C
:07084D0054656D703A2000B4
:020000040030CA
:0D000100021F1EFF8381FF0FC00FE00F40A4
:00000001FF
