:04000000DDEF03F03D
:1000080000C015F0F2A413D07B0ED66EE10ED76EA9
:10001800F294030E006ECECF3BF0000E3C6E005003
:1000280005E03B363B903C36FF0FFAD7CE6A15C049
:0400380000F01100C3
:10003C000F0E0C6E470E0D6E0D2EFED70C2EFCD730
:06004C000000000012009C
:0A005200210E0D6E0D2EFED71200D8
:06005C000000000012008C
:080062000AAE029E000E12001E
:0E006A00026A016A006A086A036A000E120048
:1000780045BE02D0839E01D0838E45BC02D0839CAE
:1000880001D0838C45BA02D0839A01D0838A45B8BF
:1000980002D0839801D0838830B002D0848401D004
:1000A80084948482D7DF849245B602D0839E01D09F
:1000B800838E45B402D0839C01D0838C45B202D094
:1000C800839A01D0838A45B002D0839801D083886F
:1000D80030B002D0848401D084948482BBDF8492BF
:0C00E80030A002D0A7DF01D0B0DF120072
:1000F4000B840BAE85EF00F0010E036E026A016AF9
:0A010400006A0A360232FF0E1200F4
:10010E000C6A0E6A0250D8A4A0EF00F001C002F0F3
:10011E0000C001F0006A0E860250D8A4A0EF00F0D5
:10012E0001C002F0016A0E960E880250D8B4B2EFEA
:10013E0000F00E50035ED8A4D8A0B7EF00F0D89010
:10014E0002BEBCEF00F0003601360236032EA7EFDA
:10015E0000F0B7EF00F0010E0C6E80DFBFEF00F085
:10016E00020E0C6EC0DFBFEF00F0040E0C6E72DFDD
:02017E0012006D
:0C018000309044C045F078DF3080120061
:10018C000B6A0A6A096A00500402F4CF09F0F3CF33
:10019C0008F001500502F4CF0BF0F3CF0AF0005039
:1001AC000502F3500926F4500A22E86A0B2201508A
:1001BC000402F3500926F4500A22E86A0B2208C004
:1001CC0000F009C001F00AC002F00BC003F01200ED
:0C01DC000E0E0D6E0D2EFED7000012005E
:1001E800086A096A100E0C6E013408360936045084
:1001F800085E0550D8A0053C095ED8B007D0045069
:1002080008260550D8B0053C0926D8900036013696
:060218000C2EEAD71200D3
:10021E000B800BAE1BEF01F0026A0AAEFF0E026EF0
:0C022E00016E006E0A360232FF0E120054
:10023A00020E0C6E490E0D6E0D2EFED70C2EFCD73B
:06024A000000000012009C
:100250000B820BAE32EF01F00368026801680068A0
:080260000A360232FF0E120003
:100268000900F5CFE6FF0006FBE10106F9E11200FF
:10027800436A3FC001F0010E006E015004E00036F1
:100288000090FF0FFBD700C042F03DC0E9FF3EC021
:10029800EAFF0050EE14016E0152010ED8A4000EC0
:1002A800006E4150001A18E04050000804E2C1DF17
:1002B800C0DF4006F9D73DC0E9FF3EC0EAFF425023
:1002C800EE14016E0152010ED8A4000E006E4150CA
:0E02D800001A02E0FF0E436E43C000F0120059
:1002E600416A050E415C0AE241503F24E16E000E70
:1002F6004020E26E200EE66E412AF3D741503F249D
:10030600E16E000E4020E26EE66A410641503F244F
:10031600426E000E4020436E0A0E046E000E056EFD
:100326003DC000F03EC001F05CDF08C000F009C02F
:1003360001F0300E002642C0E1FF43C0E2FF00C0DC
:10034600E6FF0A0E046E000E056E3DC000F03EC0CC
:1003560001F047DF00C03DF001C03EF0000E01187D
:1003660002E1000E001801E102D04106CFD71200CB
:100376000FD0800E3D6E19D0C00E3D6E16D0940E75
:100386003D6E13D0D40E3D6E10D0800E3D6E0DD056
:100396003D50010AEEE03D50020AEEE03D50030AF0
:1003A600EEE03D50040AEEE0F0D73E04006E3D500C
:1003B600002600C03DF000C045F05BDE3090416A8B
:1003C60041503F24E96E000E4020EA6EEE520BE0EB
:1003D60041503F24E96E000E4020EA6EEECF44F015
:0A03E600CCDE412AEDD73080120072
:1003F0003F6A3F503D24E96E000E3E20EA6EEE5209
:100400000BE03F503D24E96E000E3E20EA6EEECF39
:0A04100044F0B6DE3F2AEDD71200DB
:10041A00969296949598959A959C959E8492849492
:10042A00839E839C839A839804DE03DE02DE838A9A
:10043A00838884820EDE8492FCDD84820ADE8492C2
:10044A00F8DD848206DE8492F4DD8398848201DEFC
:10045A008492EFDD8482FDDD8492839A838E848286
:10046A00F8DD8492E6DD839E83888482F2DD8492BD
:10047A0083988482EEDD8492DCDD8482EADD8492D4
:10048A0083888482E6DD8492D4DD83988482E1DDE8
:10049A008492838E838C838A83888482DADD849231
:0604AA00C8DD30801200E5
:1004B000A6A202D00000FCD7A69C3DC0A9FF3EC06A
:1004C000A8FFA69EA684F2CF00F0F29E550EA76E5E
:1004D000AA0EA76EA68200BE02D0F29E01D0F28EB6
:0404E000A6941200CC
:1004E4000B6A0C6A0A6A0350D8B4BCEF02F0028E9D
:1004F4008E0E035E03BE84EF02F0D8B484EF02F0E4
:10050400C0EF02F0036C080E035CD8A09BEF02F06E
:10051400036E013602C001F0026A080E035CD8A023
:100524009BEF02F00136016A0350D8A4D890A5EFDE
:1005340002F00350D8B4A5EF02F0D8900232013291
:10054400032E9FEF02F00BBC01A0B2EF02F0D8A083
:10055400B2EF02F0012AD8B4022A02BECFEF02F0B1
:100564000AAED4EF02F0021E011E012AD8B4022AF8
:10057400D4EF02F0026A016AD4EF02F00B800BAEF2
:10058400D8EF02F0026A0AAED8EF02F0FF0E026E54
:10059400016E0A360232D8EF02F0010E0C6E3DDE17
:1005A400DAEF02F0000E0C6EDAEF02F0FF0E0C6EC2
:0A05B4000150006E0250016E1200AB
:1005BE00086A096A000E0762036464EF03F00250D2
:1005CE0006180A6E075003267E0ED8A0F5EF02F02D
:1005DE00035ED8B068EF03F0F9EF02F0035ED8A027
:1005EE006CEF03F0028E068E02C00EF001C00BF00F
:1005FE0000C00DF000500402F4CF0CF001500502C3
:10060E00F4CF00F0F3CF08F00402F3500C26F450B0
:10061E000822000E00220D500502F3500C26F45055
:10062E000822000E002202500402F3500826F45055
:10063E00002202500502016A000E0122F35000262C
:10064E00F45001220D500602F3500826F4500022F9
:10065E00026A000E012202220B500602F3500026FF
:10066E00F4500122000E02220E500602F350012613
:10067E00F450022202BE4CEF03F00836003601366B
:10068E0002360306D8B46CEF03F05FEF03F0D880A8
:10069E00800E08640030000E002201220222D8A033
:1006AE005FEF03F0023201320032034A68EF03F0CB
:1006BE000AAE029E000E6EEF03F0010ECFDC6EEF5F
:1006CE0003F0020EBEDD6EEF03F0040E0CDD120021
:1006DE000050086E0150006E016A026A036A0B6ACE
:1006EE000C6A960E036E0A6A00C001F008C000F094
:0806FE00086A026A05DD120022
:10070600CB50010F006E016A000E01223DC004F0BD
:10071600000E056E38DD060E026E00C004F001C044
:1007260005F0025005E005320432059EFF0FFAD7A8
:10073600040E016E04C000F0015004E00036009083
:10074600FF0FFBD7300E0014036E04C000F005C087
:1007560001F001320032019E01320032019E00C0DA
:0C076600BEFF0F0EBD160350BD121200A6
:08077200BE6ABD98BD9A120099
:10077A00C26A070EC012C08E3DC000F0003600905B
:10078A00003600900050C212C28023DDC282C2A28B
:10079A0001D0FDD7C4CF01F0006AC3500012000E89
:0607AA000112C2901200D2
:0A07B0009494CA840C0EBD121200CE
:1007BA00DCEC04F0936A956A94809494949A9492E7
:1007CA009384966AF28EF28CD08EF294F184F28A35
:1007DA00840ED56E7B0ED66EE10ED76EF294830E22
:1007EA00CD6ECE6ACF6A9E90010EC26E0C0EC16E9D
:1007FA00BE0EC06E0DDE010E456E39DC0C0E456E66
:10080A0036DC010E3D6E010E3E6E230E3F6E000E6B
:10081A00406EACDD020E3D6E010E3E6E2A0E3F6E3C
:10082A00000E406EA3DDCA80CA92630ECB6E9CDFB7
:10083A003D6A64DFB8DF828A8282020E3D6E98DFEB
:10084A0000C018F001C019F000C002F001C003F0A6
:10085A0003320232039E02C018F003C019F01AC014
:10086A003DF002C03EF01FDE020E0B6E040E0C6E4F
:10087A00BA0E0D6E0D2EFED70C2EFCD70B2EFAD704
:10088A0000001A4A1B2A3D6A73DF00C01CF001C02F
:10089A001DF020DF8F0E046EC20E056E750E066EF9
:1008AA007C0E076E87DE19DE00C01CF001C01DF049
:1008BA00000E006E1950005C02E118501E0807E293
:1008CA00030E1802F3CF3DF019DF829202D03D6A7F
:1008DA0015DF810E3D6E0F0E3E6E020E3F6E010E4B
:1008EA00406E010E416EC3DC005204E0010E166E2A
:1008FA00000E176E165017100FE0810E3D6E0F0E88
:10090A003E6E020E3F6E010E406E416AB0DC00522E
:10091A0003E0827A166A176A1CC000F01DC001F053
:10092A00D9DE850E046EEB0E056E510E066E7D0E37
:10093A00076E40DED2DD00C01CF001C01DF018C0F9
:10094A003DF019C03EF0310E3F6E000E406EC6DC1F
:10095A00010E3D6E080E3E6E310E3F6E000E406E69
:10096A0005DD3BC03DF03CC03EF0310E3F6E000E4F
:10097A00406EB4DC020E3D6E050E3E6E310E3F6EC9
:10098A00000E406EF3DC1E0E3D6E000E3E6E2BDD39
:04099A0054D7FFD758
:1009B80010EE16F01A0E006E010E016E9E0EF66E07
:0E09C800090EF76E000EF86E34EC01F012000E
:02099E00000057
:0209A000000055
:0209A200010052
:0209A400000051
:0509A6002052504D003D
:0709AB0054656D703A200055
:0609B200526F743A2000B0
:020000040030CA
:0D000100021F1EFF8381FF0FC00FE00F40A4
:00000001FF
